{
  "contractName": "SupplyChain",
  "abi": [
    {
      "inputs": [
        {
          "internalType": "address",
          "name": "_token",
          "type": "address"
        }
      ],
      "stateMutability": "nonpayable",
      "type": "constructor"
    },
    {
      "anonymous": false,
      "inputs": [
        {
          "indexed": true,
          "internalType": "address",
          "name": "account",
          "type": "address"
        },
        {
          "indexed": false,
          "internalType": "enum SupplyChain.RoleType",
          "name": "role",
          "type": "uint8"
        }
      ],
      "name": "RoleAdded",
      "type": "event"
    },
    {
      "anonymous": false,
      "inputs": [
        {
          "indexed": true,
          "internalType": "address",
          "name": "account",
          "type": "address"
        },
        {
          "indexed": false,
          "internalType": "enum SupplyChain.RoleType",
          "name": "role",
          "type": "uint8"
        }
      ],
      "name": "RoleRemoved",
      "type": "event"
    },
    {
      "inputs": [],
      "name": "token",
      "outputs": [
        {
          "internalType": "address",
          "name": "",
          "type": "address"
        }
      ],
      "stateMutability": "view",
      "type": "function",
      "constant": true
    },
    {
      "inputs": [
        {
          "internalType": "address",
          "name": "account",
          "type": "address"
        }
      ],
      "name": "isAdmin",
      "outputs": [
        {
          "internalType": "bool",
          "name": "",
          "type": "bool"
        }
      ],
      "stateMutability": "view",
      "type": "function",
      "constant": true
    },
    {
      "inputs": [
        {
          "internalType": "address",
          "name": "account",
          "type": "address"
        }
      ],
      "name": "isHospital",
      "outputs": [
        {
          "internalType": "bool",
          "name": "",
          "type": "bool"
        }
      ],
      "stateMutability": "view",
      "type": "function",
      "constant": true
    },
    {
      "inputs": [
        {
          "internalType": "address",
          "name": "account",
          "type": "address"
        }
      ],
      "name": "isProducer",
      "outputs": [
        {
          "internalType": "bool",
          "name": "",
          "type": "bool"
        }
      ],
      "stateMutability": "view",
      "type": "function",
      "constant": true
    },
    {
      "inputs": [
        {
          "internalType": "address",
          "name": "account",
          "type": "address"
        }
      ],
      "name": "isPharmacy",
      "outputs": [
        {
          "internalType": "bool",
          "name": "",
          "type": "bool"
        }
      ],
      "stateMutability": "view",
      "type": "function",
      "constant": true
    },
    {
      "inputs": [
        {
          "internalType": "address",
          "name": "account",
          "type": "address"
        }
      ],
      "name": "isDoctor",
      "outputs": [
        {
          "internalType": "bool",
          "name": "",
          "type": "bool"
        }
      ],
      "stateMutability": "view",
      "type": "function",
      "constant": true
    },
    {
      "inputs": [
        {
          "internalType": "address",
          "name": "account",
          "type": "address"
        }
      ],
      "name": "isPatient",
      "outputs": [
        {
          "internalType": "bool",
          "name": "",
          "type": "bool"
        }
      ],
      "stateMutability": "view",
      "type": "function",
      "constant": true
    },
    {
      "inputs": [
        {
          "internalType": "uint256",
          "name": "medicationId",
          "type": "uint256"
        },
        {
          "internalType": "address",
          "name": "account",
          "type": "address"
        }
      ],
      "name": "isRightLocation",
      "outputs": [
        {
          "internalType": "bool",
          "name": "",
          "type": "bool"
        }
      ],
      "stateMutability": "view",
      "type": "function",
      "constant": true
    },
    {
      "inputs": [
        {
          "internalType": "address",
          "name": "account",
          "type": "address"
        }
      ],
      "name": "addAdmin",
      "outputs": [],
      "stateMutability": "nonpayable",
      "type": "function"
    },
    {
      "inputs": [
        {
          "internalType": "address",
          "name": "account",
          "type": "address"
        }
      ],
      "name": "addHospital",
      "outputs": [],
      "stateMutability": "nonpayable",
      "type": "function"
    },
    {
      "inputs": [
        {
          "internalType": "address",
          "name": "account",
          "type": "address"
        }
      ],
      "name": "addProducer",
      "outputs": [],
      "stateMutability": "nonpayable",
      "type": "function"
    },
    {
      "inputs": [
        {
          "internalType": "address",
          "name": "account",
          "type": "address"
        }
      ],
      "name": "addPharmacy",
      "outputs": [],
      "stateMutability": "nonpayable",
      "type": "function"
    },
    {
      "inputs": [
        {
          "internalType": "address",
          "name": "account",
          "type": "address"
        }
      ],
      "name": "addDoctor",
      "outputs": [],
      "stateMutability": "nonpayable",
      "type": "function"
    },
    {
      "inputs": [
        {
          "internalType": "address",
          "name": "account",
          "type": "address"
        }
      ],
      "name": "addPatient",
      "outputs": [],
      "stateMutability": "nonpayable",
      "type": "function"
    },
    {
      "inputs": [
        {
          "internalType": "address",
          "name": "account",
          "type": "address"
        },
        {
          "internalType": "uint256",
          "name": "medicationId",
          "type": "uint256"
        }
      ],
      "name": "addPrescription",
      "outputs": [],
      "stateMutability": "nonpayable",
      "type": "function"
    },
    {
      "inputs": [
        {
          "internalType": "address",
          "name": "account",
          "type": "address"
        },
        {
          "internalType": "uint256",
          "name": "medicationId",
          "type": "uint256"
        }
      ],
      "name": "usePrescription",
      "outputs": [],
      "stateMutability": "nonpayable",
      "type": "function"
    },
    {
      "inputs": [
        {
          "internalType": "uint256",
          "name": "medicationId",
          "type": "uint256"
        },
        {
          "internalType": "address",
          "name": "storeAccount",
          "type": "address"
        }
      ],
      "name": "transferTkToStore",
      "outputs": [],
      "stateMutability": "nonpayable",
      "type": "function"
    },
    {
      "inputs": [
        {
          "internalType": "uint256",
          "name": "_id",
          "type": "uint256"
        },
        {
          "internalType": "string",
          "name": "_name",
          "type": "string"
        },
        {
          "internalType": "bool",
          "name": "_requiresPrescription",
          "type": "bool"
        }
      ],
      "name": "mintMTk",
      "outputs": [],
      "stateMutability": "nonpayable",
      "type": "function"
    }
  ],
  "bytecode": "0x608060405234801561001057600080fd5b506040516113073803806113078339818101604052602081101561003357600080fd5b810190808051906020019092919050505060016000800160003373ffffffffffffffffffffffffffffffffffffffff1673ffffffffffffffffffffffffffffffffffffffff16815260200190815260200160002060006101000a81548160ff02191690831515021790555080600660006101000a81548173ffffffffffffffffffffffffffffffffffffffff021916908373ffffffffffffffffffffffffffffffffffffffff16021790555050611218806100ef6000396000f3fe608060405234801561001057600080fd5b50600436106101165760003560e01c8063996440c6116100a2578063c7ebaa9d11610071578063c7ebaa9d146105a8578063ddf80166146105f6578063dfb0fda31461063a578063f552102214610694578063fc0c546a146106ee57610116565b8063996440c6146103df578063afd675f814610439578063bdf6c6731461047d578063c7bd4e3d146104d757610116565b80634780468f116100e95780634780468f1461026b5780636d263ceb146102af57806370480275146102f357806381078850146103375780638f9c79ed1461038557610116565b806309d263201461011b5780631b470bc71461016957806324d7806c146101ad57806340b9d1ba14610207575b600080fd5b6101676004803603604081101561013157600080fd5b81019080803573ffffffffffffffffffffffffffffffffffffffff16906020019092919080359060200190929190505050610722565b005b6101ab6004803603602081101561017f57600080fd5b81019080803573ffffffffffffffffffffffffffffffffffffffff1690602001909291905050506108ac565b005b6101ef600480360360208110156101c357600080fd5b81019080803573ffffffffffffffffffffffffffffffffffffffff16906020019092919050505061092f565b60405180821515815260200191505060405180910390f35b6102536004803603604081101561021d57600080fd5b8101908080359060200190929190803573ffffffffffffffffffffffffffffffffffffffff16906020019092919050505061094c565b60405180821515815260200191505060405180910390f35b6102ad6004803603602081101561028157600080fd5b81019080803573ffffffffffffffffffffffffffffffffffffffff169060200190929190505050610a22565b005b6102f1600480360360208110156102c557600080fd5b81019080803573ffffffffffffffffffffffffffffffffffffffff169060200190929190505050610aa5565b005b6103356004803603602081101561030957600080fd5b81019080803573ffffffffffffffffffffffffffffffffffffffff169060200190929190505050610b28565b005b6103836004803603604081101561034d57600080fd5b8101908080359060200190929190803573ffffffffffffffffffffffffffffffffffffffff169060200190929190505050610bab565b005b6103c76004803603602081101561039b57600080fd5b81019080803573ffffffffffffffffffffffffffffffffffffffff169060200190929190505050610c91565b60405180821515815260200191505060405180910390f35b610421600480360360208110156103f557600080fd5b81019080803573ffffffffffffffffffffffffffffffffffffffff169060200190929190505050610cae565b60405180821515815260200191505060405180910390f35b61047b6004803603602081101561044f57600080fd5b81019080803573ffffffffffffffffffffffffffffffffffffffff169060200190929190505050610ccb565b005b6104bf6004803603602081101561049357600080fd5b81019080803573ffffffffffffffffffffffffffffffffffffffff169060200190929190505050610d4e565b60405180821515815260200191505060405180910390f35b6105a6600480360360608110156104ed57600080fd5b81019080803590602001909291908035906020019064010000000081111561051457600080fd5b82018360208201111561052657600080fd5b8035906020019184600183028401116401000000008311171561054857600080fd5b91908080601f016020809104026020016040519081016040528093929190818152602001838380828437600081840152601f19601f820116905080830192505050505050509192919290803515159060200190929190505050610d6b565b005b6105f4600480360360408110156105be57600080fd5b81019080803573ffffffffffffffffffffffffffffffffffffffff16906020019092919080359060200190929190505050610eac565b005b6106386004803603602081101561060c57600080fd5b81019080803573ffffffffffffffffffffffffffffffffffffffff169060200190929190505050610fc1565b005b61067c6004803603602081101561065057600080fd5b81019080803573ffffffffffffffffffffffffffffffffffffffff169060200190929190505050611044565b60405180821515815260200191505060405180910390f35b6106d6600480360360208110156106aa57600080fd5b81019080803573ffffffffffffffffffffffffffffffffffffffff169060200190929190505050611061565b60405180821515815260200191505060405180910390f35b6106f661107e565b604051808273ffffffffffffffffffffffffffffffffffffffff16815260200191505060405180910390f35b61072b33610cae565b61073457600080fd5b61073d82610c91565b61074657600080fd5b600660009054906101000a900473ffffffffffffffffffffffffffffffffffffffff1673ffffffffffffffffffffffffffffffffffffffff166372975344826040518263ffffffff1660e01b81526004018082815260200191505060206040518083038186803b1580156107b957600080fd5b505afa1580156107cd573d6000803e3d6000fd5b505050506040513d60208110156107e357600080fd5b81019080805190602001909291905050506107fd57600080fd5b60405180604001604052808373ffffffffffffffffffffffffffffffffffffffff168152602001600015158152506007600083815260200190815260200160002060008201518160000160006101000a81548173ffffffffffffffffffffffffffffffffffffffff021916908373ffffffffffffffffffffffffffffffffffffffff16021790555060208201518160000160146101000a81548160ff0219169083151502179055509050505050565b6108b53361092f565b6108be57600080fd5b6108d28160016110a490919063ffffffff16565b8073ffffffffffffffffffffffffffffffffffffffff167f0ed8a6a6a166243876472f7a8610b62c1a76c67911642d39ff34ead38105534f60016040518082600581111561091c57fe5b815260200191505060405180910390a250565b600061094582600061115090919063ffffffff16565b9050919050565b6000600660009054906101000a900473ffffffffffffffffffffffffffffffffffffffff1673ffffffffffffffffffffffffffffffffffffffff16638e7ca75484846040518363ffffffff1660e01b8152600401808381526020018273ffffffffffffffffffffffffffffffffffffffff1681526020019250505060206040518083038186803b1580156109df57600080fd5b505afa1580156109f3573d6000803e3d6000fd5b505050506040513d6020811015610a0957600080fd5b8101908080519060200190929190505050905092915050565b610a2b33610d4e565b610a3457600080fd5b610a488160046110a490919063ffffffff16565b8073ffffffffffffffffffffffffffffffffffffffff167f0ed8a6a6a166243876472f7a8610b62c1a76c67911642d39ff34ead38105534f600460405180826005811115610a9257fe5b815260200191505060405180910390a250565b610aae33610d4e565b610ab757600080fd5b610acb8160056110a490919063ffffffff16565b8073ffffffffffffffffffffffffffffffffffffffff167f0ed8a6a6a166243876472f7a8610b62c1a76c67911642d39ff34ead38105534f600560405180826005811115610b1557fe5b815260200191505060405180910390a250565b610b313361092f565b610b3a57600080fd5b610b4e8160006110a490919063ffffffff16565b8073ffffffffffffffffffffffffffffffffffffffff167f0ed8a6a6a166243876472f7a8610b62c1a76c67911642d39ff34ead38105534f600060405180826005811115610b9857fe5b815260200191505060405180910390a250565b610bb433611061565b610bbd57600080fd5b610bc7823361094c565b610bd057600080fd5b610bd981611044565b610be257600080fd5b600660009054906101000a900473ffffffffffffffffffffffffffffffffffffffff1673ffffffffffffffffffffffffffffffffffffffff16638107885083836040518363ffffffff1660e01b8152600401808381526020018273ffffffffffffffffffffffffffffffffffffffff16815260200192505050600060405180830381600087803b158015610c7557600080fd5b505af1158015610c89573d6000803e3d6000fd5b505050505050565b6000610ca782600561115090919063ffffffff16565b9050919050565b6000610cc482600461115090919063ffffffff16565b9050919050565b610cd43361092f565b610cdd57600080fd5b610cf18160036110a490919063ffffffff16565b8073ffffffffffffffffffffffffffffffffffffffff167f0ed8a6a6a166243876472f7a8610b62c1a76c67911642d39ff34ead38105534f600360405180826005811115610d3b57fe5b815260200191505060405180910390a250565b6000610d6482600161115090919063ffffffff16565b9050919050565b610d7433611061565b610d7d57600080fd5b600660009054906101000a900473ffffffffffffffffffffffffffffffffffffffff1673ffffffffffffffffffffffffffffffffffffffff1663e44e067a84848433426040518663ffffffff1660e01b8152600401808681526020018060200185151581526020018473ffffffffffffffffffffffffffffffffffffffff168152602001838152602001828103825286818151815260200191508051906020019080838360005b83811015610e3f578082015181840152602081019050610e24565b50505050905090810190601f168015610e6c5780820380516001836020036101000a031916815260200191505b509650505050505050600060405180830381600087803b158015610e8f57600080fd5b505af1158015610ea3573d6000803e3d6000fd5b50505050505050565b610eb533611044565b610ebe57600080fd5b610ec8813361094c565b610ed157600080fd5b610eda82610c91565b610ee357600080fd5b60016007600083815260200190815260200160002060000160146101000a81548160ff021916908315150217905550600660009054906101000a900473ffffffffffffffffffffffffffffffffffffffff1673ffffffffffffffffffffffffffffffffffffffff1663dd4549b782846040518363ffffffff1660e01b8152600401808381526020018273ffffffffffffffffffffffffffffffffffffffff16815260200192505050600060405180830381600087803b158015610fa557600080fd5b505af1158015610fb9573d6000803e3d6000fd5b505050505050565b610fca3361092f565b610fd357600080fd5b610fe78160026110a490919063ffffffff16565b8073ffffffffffffffffffffffffffffffffffffffff167f0ed8a6a6a166243876472f7a8610b62c1a76c67911642d39ff34ead38105534f60026040518082600581111561103157fe5b815260200191505060405180910390a250565b600061105a82600361115090919063ffffffff16565b9050919050565b600061107782600261115090919063ffffffff16565b9050919050565b600660009054906101000a900473ffffffffffffffffffffffffffffffffffffffff1681565b600073ffffffffffffffffffffffffffffffffffffffff168173ffffffffffffffffffffffffffffffffffffffff1614156110de57600080fd5b6110e88282611150565b156110f257600080fd5b60018260000160008373ffffffffffffffffffffffffffffffffffffffff1673ffffffffffffffffffffffffffffffffffffffff16815260200190815260200160002060006101000a81548160ff0219169083151502179055505050565b60008073ffffffffffffffffffffffffffffffffffffffff168273ffffffffffffffffffffffffffffffffffffffff16141561118b57600080fd5b8260000160008373ffffffffffffffffffffffffffffffffffffffff1673ffffffffffffffffffffffffffffffffffffffff16815260200190815260200160002060009054906101000a900460ff1690509291505056fea2646970667358221220ea9b75a0cd5cbdb2ee1323b3565cf50a69242c00c765dbbaf707b722ff9cc54664736f6c634300060c0033",
  "immutableReferences": {},
  "source": "pragma solidity ^0.6.0;\r\n\r\nimport \"./Roles.sol\";\r\nimport \"./tokens/MedicationToken.sol\";\r\n\r\ncontract SupplyChain {\r\n\r\n    using Roles for Roles.Role;\r\n\r\n    event RoleAdded(address indexed account, RoleType role);\r\n    event RoleRemoved(address indexed account, RoleType role);\r\n\r\n    Roles.Role admins;\r\n    Roles.Role hospitals;\r\n    Roles.Role producers;\r\n    Roles.Role pharmacies;\r\n    Roles.Role doctors;\r\n    Roles.Role patients;\r\n\r\n    address public token;\r\n\r\n    mapping(uint256 => Prescription) prescriptions;\r\n\r\n    struct Prescription {\r\n        address account;\r\n        bool alreadyUsed;\r\n    }\r\n\r\n    enum RoleType {\r\n        Admin, Hospital, Producer, Pharmacy, Doctor, Patient\r\n    }\r\n\r\n    constructor (address _token) public {\r\n        admins.bearer[msg.sender] = true;\r\n        token = _token;\r\n    }\r\n\r\n    modifier onlyAdmin() {\r\n        require(isAdmin(msg.sender));\r\n        _;\r\n    }\r\n\r\n    modifier onlyHospital() {\r\n        require(isHospital(msg.sender));\r\n        _;\r\n    }\r\n\r\n    modifier onlyProducer() {\r\n        require(isProducer(msg.sender));\r\n        _;\r\n    }\r\n\r\n    function isAdmin(address account) public view returns (bool) {\r\n        return admins.has(account);\r\n    }\r\n\r\n    function isHospital(address account) public view returns (bool) {\r\n        return hospitals.has(account);\r\n    }\r\n\r\n    function isProducer(address account) public view returns (bool) {\r\n        return producers.has(account);\r\n    }\r\n\r\n    function isPharmacy(address account) public view returns (bool) {\r\n        return pharmacies.has(account);\r\n    }\r\n\r\n    function isDoctor(address account) public view returns (bool) {\r\n        return doctors.has(account);\r\n    }\r\n\r\n    function isPatient(address account) public view returns (bool) {\r\n        return patients.has(account);\r\n    }\r\n\r\n    function isRightLocation(uint256 medicationId, address account) public view returns (bool) {\r\n        return MedicationToken(token).isDrugInSpecifiedLocation(medicationId, account);\r\n    }\r\n\r\n    function addAdmin(address account) public onlyAdmin {\r\n        admins.add(account);\r\n        emit RoleAdded(account, RoleType.Admin);\r\n    }\r\n\r\n    function addHospital(address account) public onlyAdmin {\r\n        hospitals.add(account);\r\n        emit RoleAdded(account, RoleType.Hospital);\r\n    }\r\n\r\n    function addProducer(address account) public onlyAdmin {\r\n        producers.add(account);\r\n        emit RoleAdded(account, RoleType.Producer);\r\n    }\r\n\r\n    function addPharmacy(address account) public onlyAdmin {\r\n        pharmacies.add(account);\r\n        emit RoleAdded(account, RoleType.Pharmacy);\r\n    }\r\n\r\n    function addDoctor(address account) public onlyHospital {\r\n        doctors.add(account);\r\n        emit RoleAdded(account, RoleType.Doctor);\r\n    }\r\n\r\n    function addPatient(address account) public onlyHospital {\r\n        patients.add(account);\r\n        emit RoleAdded(account, RoleType.Patient);\r\n    }\r\n\r\n    function addPrescription(address account, uint256 medicationId) public {\r\n        require(isDoctor(msg.sender));\r\n        require(isPatient(account));\r\n        require(MedicationToken(token).isDrugInStore(medicationId));\r\n        prescriptions[medicationId] = Prescription(account, false);\r\n    }\r\n\r\n    function usePrescription(address account, uint256 medicationId) public {\r\n        require(isPharmacy(msg.sender));\r\n        require(isRightLocation(medicationId, msg.sender));\r\n        require(isPatient(account));\r\n        prescriptions[medicationId].alreadyUsed = true;\r\n        MedicationToken(token).sellToken(medicationId, account);\r\n    }\r\n\r\n    function transferTkToStore(uint256 medicationId, address storeAccount) public onlyProducer {\r\n        require(isRightLocation(medicationId, msg.sender));\r\n        require(isPharmacy(storeAccount));\r\n        MedicationToken(token).transferTkToStore(medicationId, storeAccount);\r\n    }\r\n\r\n    function mintMTk(uint256 _id, string memory _name, bool _requiresPrescription) public onlyProducer {\r\n        MedicationToken(token).createToken(_id, _name, _requiresPrescription, msg.sender, now);\r\n    }\r\n\r\n}\r\n",
  "sourcePath": "D:/Facultad/blockchain/obligatorio/contracts/SupplyChain.sol",
  "compiler": {
    "name": "solc",
    "version": "0.6.12+commit.27d51765.Emscripten.clang"
  },
  "schemaVersion": "3.3.2",
  "updatedAt": "2020-11-21T03:32:41.112Z",
  "networkType": "ethereum",
  "devdoc": {
    "kind": "dev",
    "methods": {},
    "version": 1
  },
  "userdoc": {
    "kind": "user",
    "methods": {},
    "version": 1
  }
}