{
  "contractName": "SupplyChain",
  "abi": [
    {
      "inputs": [
        {
          "internalType": "address",
          "name": "_token",
          "type": "address"
        }
      ],
      "stateMutability": "nonpayable",
      "type": "constructor"
    },
    {
      "anonymous": false,
      "inputs": [
        {
          "indexed": true,
          "internalType": "address",
          "name": "account",
          "type": "address"
        },
        {
          "indexed": false,
          "internalType": "enum SupplyChain.RoleType",
          "name": "role",
          "type": "uint8"
        }
      ],
      "name": "RoleAdded",
      "type": "event"
    },
    {
      "anonymous": false,
      "inputs": [
        {
          "indexed": true,
          "internalType": "address",
          "name": "account",
          "type": "address"
        },
        {
          "indexed": false,
          "internalType": "enum SupplyChain.RoleType",
          "name": "role",
          "type": "uint8"
        }
      ],
      "name": "RoleRemoved",
      "type": "event"
    },
    {
      "inputs": [],
      "name": "token",
      "outputs": [
        {
          "internalType": "address",
          "name": "",
          "type": "address"
        }
      ],
      "stateMutability": "view",
      "type": "function",
      "constant": true
    },
    {
      "inputs": [
        {
          "internalType": "address",
          "name": "account",
          "type": "address"
        }
      ],
      "name": "isAdmin",
      "outputs": [
        {
          "internalType": "bool",
          "name": "",
          "type": "bool"
        }
      ],
      "stateMutability": "view",
      "type": "function",
      "constant": true
    },
    {
      "inputs": [
        {
          "internalType": "address",
          "name": "account",
          "type": "address"
        }
      ],
      "name": "isHospital",
      "outputs": [
        {
          "internalType": "bool",
          "name": "",
          "type": "bool"
        }
      ],
      "stateMutability": "view",
      "type": "function",
      "constant": true
    },
    {
      "inputs": [
        {
          "internalType": "address",
          "name": "account",
          "type": "address"
        }
      ],
      "name": "isProducer",
      "outputs": [
        {
          "internalType": "bool",
          "name": "",
          "type": "bool"
        }
      ],
      "stateMutability": "view",
      "type": "function",
      "constant": true
    },
    {
      "inputs": [
        {
          "internalType": "address",
          "name": "account",
          "type": "address"
        }
      ],
      "name": "isPharmacy",
      "outputs": [
        {
          "internalType": "bool",
          "name": "",
          "type": "bool"
        }
      ],
      "stateMutability": "view",
      "type": "function",
      "constant": true
    },
    {
      "inputs": [
        {
          "internalType": "address",
          "name": "account",
          "type": "address"
        }
      ],
      "name": "isDoctor",
      "outputs": [
        {
          "internalType": "bool",
          "name": "",
          "type": "bool"
        }
      ],
      "stateMutability": "view",
      "type": "function",
      "constant": true
    },
    {
      "inputs": [
        {
          "internalType": "address",
          "name": "account",
          "type": "address"
        }
      ],
      "name": "isPatient",
      "outputs": [
        {
          "internalType": "bool",
          "name": "",
          "type": "bool"
        }
      ],
      "stateMutability": "view",
      "type": "function",
      "constant": true
    },
    {
      "inputs": [
        {
          "internalType": "address",
          "name": "account",
          "type": "address"
        }
      ],
      "name": "addAdmin",
      "outputs": [],
      "stateMutability": "nonpayable",
      "type": "function"
    },
    {
      "inputs": [
        {
          "internalType": "address",
          "name": "account",
          "type": "address"
        }
      ],
      "name": "addHospital",
      "outputs": [],
      "stateMutability": "nonpayable",
      "type": "function"
    },
    {
      "inputs": [
        {
          "internalType": "address",
          "name": "account",
          "type": "address"
        }
      ],
      "name": "addProducer",
      "outputs": [],
      "stateMutability": "nonpayable",
      "type": "function"
    },
    {
      "inputs": [
        {
          "internalType": "address",
          "name": "account",
          "type": "address"
        }
      ],
      "name": "addPharmacy",
      "outputs": [],
      "stateMutability": "nonpayable",
      "type": "function"
    },
    {
      "inputs": [
        {
          "internalType": "address",
          "name": "account",
          "type": "address"
        }
      ],
      "name": "addDoctor",
      "outputs": [],
      "stateMutability": "nonpayable",
      "type": "function"
    },
    {
      "inputs": [
        {
          "internalType": "address",
          "name": "account",
          "type": "address"
        }
      ],
      "name": "addPatient",
      "outputs": [],
      "stateMutability": "nonpayable",
      "type": "function"
    },
    {
      "inputs": [
        {
          "internalType": "address",
          "name": "account",
          "type": "address"
        },
        {
          "internalType": "uint256",
          "name": "medicationId",
          "type": "uint256"
        }
      ],
      "name": "addPrescription",
      "outputs": [],
      "stateMutability": "nonpayable",
      "type": "function"
    },
    {
      "inputs": [
        {
          "internalType": "address",
          "name": "account",
          "type": "address"
        },
        {
          "internalType": "uint256",
          "name": "medicationId",
          "type": "uint256"
        }
      ],
      "name": "usePrescription",
      "outputs": [],
      "stateMutability": "nonpayable",
      "type": "function"
    },
    {
      "inputs": [
        {
          "internalType": "uint256",
          "name": "medicationId",
          "type": "uint256"
        }
      ],
      "name": "transferTkToStore",
      "outputs": [],
      "stateMutability": "nonpayable",
      "type": "function"
    },
    {
      "inputs": [
        {
          "internalType": "uint256",
          "name": "_id",
          "type": "uint256"
        },
        {
          "internalType": "string",
          "name": "_name",
          "type": "string"
        },
        {
          "internalType": "bool",
          "name": "_requiresPrescription",
          "type": "bool"
        }
      ],
      "name": "mintMTk",
      "outputs": [],
      "stateMutability": "nonpayable",
      "type": "function"
    }
  ],
  "bytecode": "0x608060405234801561001057600080fd5b506040516110eb3803806110eb8339818101604052602081101561003357600080fd5b810190808051906020019092919050505060016000800160003373ffffffffffffffffffffffffffffffffffffffff1673ffffffffffffffffffffffffffffffffffffffff16815260200190815260200160002060006101000a81548160ff02191690831515021790555080600660006101000a81548173ffffffffffffffffffffffffffffffffffffffff021916908373ffffffffffffffffffffffffffffffffffffffff16021790555050610ffc806100ef6000396000f3fe608060405234801561001057600080fd5b506004361061010b5760003560e01c8063996440c6116100a2578063c7ebaa9d11610071578063c7ebaa9d14610519578063ddf8016614610567578063dfb0fda3146105ab578063f552102214610605578063fc0c546a1461065f5761010b565b8063996440c614610350578063afd675f8146103aa578063bdf6c673146103ee578063c7bd4e3d146104485761010b565b80634780468f116100de5780634780468f1461022a5780636d263ceb1461026e57806370480275146102b25780638f9c79ed146102f65761010b565b806309d26320146101105780631b470bc71461015e57806324d7806c146101a25780632c3e64ef146101fc575b600080fd5b61015c6004803603604081101561012657600080fd5b81019080803573ffffffffffffffffffffffffffffffffffffffff16906020019092919080359060200190929190505050610693565b005b6101a06004803603602081101561017457600080fd5b81019080803573ffffffffffffffffffffffffffffffffffffffff16906020019092919050505061080b565b005b6101e4600480360360208110156101b857600080fd5b81019080803573ffffffffffffffffffffffffffffffffffffffff16906020019092919050505061088e565b60405180821515815260200191505060405180910390f35b6102286004803603602081101561021257600080fd5b81019080803590602001909291905050506108ab565b005b61026c6004803603602081101561024057600080fd5b81019080803573ffffffffffffffffffffffffffffffffffffffff16906020019092919050505061094d565b005b6102b06004803603602081101561028457600080fd5b81019080803573ffffffffffffffffffffffffffffffffffffffff1690602001909291905050506109d0565b005b6102f4600480360360208110156102c857600080fd5b81019080803573ffffffffffffffffffffffffffffffffffffffff169060200190929190505050610a53565b005b6103386004803603602081101561030c57600080fd5b81019080803573ffffffffffffffffffffffffffffffffffffffff169060200190929190505050610ad6565b60405180821515815260200191505060405180910390f35b6103926004803603602081101561036657600080fd5b81019080803573ffffffffffffffffffffffffffffffffffffffff169060200190929190505050610af3565b60405180821515815260200191505060405180910390f35b6103ec600480360360208110156103c057600080fd5b81019080803573ffffffffffffffffffffffffffffffffffffffff169060200190929190505050610b10565b005b6104306004803603602081101561040457600080fd5b81019080803573ffffffffffffffffffffffffffffffffffffffff169060200190929190505050610b93565b60405180821515815260200191505060405180910390f35b6105176004803603606081101561045e57600080fd5b81019080803590602001909291908035906020019064010000000081111561048557600080fd5b82018360208201111561049757600080fd5b803590602001918460018302840111640100000000831117156104b957600080fd5b91908080601f016020809104026020016040519081016040528093929190818152602001838380828437600081840152601f19601f820116905080830192505050505050509192919290803515159060200190929190505050610bb0565b005b6105656004803603604081101561052f57600080fd5b81019080803573ffffffffffffffffffffffffffffffffffffffff16906020019092919080359060200190929190505050610cd3565b005b6105a96004803603602081101561057d57600080fd5b81019080803573ffffffffffffffffffffffffffffffffffffffff169060200190929190505050610da5565b005b6105ed600480360360208110156105c157600080fd5b81019080803573ffffffffffffffffffffffffffffffffffffffff169060200190929190505050610e28565b60405180821515815260200191505060405180910390f35b6106476004803603602081101561061b57600080fd5b81019080803573ffffffffffffffffffffffffffffffffffffffff169060200190929190505050610e45565b60405180821515815260200191505060405180910390f35b610667610e62565b604051808273ffffffffffffffffffffffffffffffffffffffff16815260200191505060405180910390f35b61069c82610af3565b6106a557600080fd5b600660009054906101000a900473ffffffffffffffffffffffffffffffffffffffff1673ffffffffffffffffffffffffffffffffffffffff166372975344826040518263ffffffff1660e01b81526004018082815260200191505060206040518083038186803b15801561071857600080fd5b505afa15801561072c573d6000803e3d6000fd5b505050506040513d602081101561074257600080fd5b810190808051906020019092919050505061075c57600080fd5b60405180604001604052808373ffffffffffffffffffffffffffffffffffffffff168152602001600015158152506007600083815260200190815260200160002060008201518160000160006101000a81548173ffffffffffffffffffffffffffffffffffffffff021916908373ffffffffffffffffffffffffffffffffffffffff16021790555060208201518160000160146101000a81548160ff0219169083151502179055509050505050565b6108143361088e565b61081d57600080fd5b610831816001610e8890919063ffffffff16565b8073ffffffffffffffffffffffffffffffffffffffff167f0ed8a6a6a166243876472f7a8610b62c1a76c67911642d39ff34ead38105534f60016040518082600581111561087b57fe5b815260200191505060405180910390a250565b60006108a4826000610f3490919063ffffffff16565b9050919050565b6108b433610e45565b6108bd57600080fd5b600660009054906101000a900473ffffffffffffffffffffffffffffffffffffffff1673ffffffffffffffffffffffffffffffffffffffff16632c3e64ef826040518263ffffffff1660e01b815260040180828152602001915050600060405180830381600087803b15801561093257600080fd5b505af1158015610946573d6000803e3d6000fd5b5050505050565b61095633610b93565b61095f57600080fd5b610973816004610e8890919063ffffffff16565b8073ffffffffffffffffffffffffffffffffffffffff167f0ed8a6a6a166243876472f7a8610b62c1a76c67911642d39ff34ead38105534f6004604051808260058111156109bd57fe5b815260200191505060405180910390a250565b6109d933610b93565b6109e257600080fd5b6109f6816005610e8890919063ffffffff16565b8073ffffffffffffffffffffffffffffffffffffffff167f0ed8a6a6a166243876472f7a8610b62c1a76c67911642d39ff34ead38105534f600560405180826005811115610a4057fe5b815260200191505060405180910390a250565b610a5c3361088e565b610a6557600080fd5b610a79816000610e8890919063ffffffff16565b8073ffffffffffffffffffffffffffffffffffffffff167f0ed8a6a6a166243876472f7a8610b62c1a76c67911642d39ff34ead38105534f600060405180826005811115610ac357fe5b815260200191505060405180910390a250565b6000610aec826005610f3490919063ffffffff16565b9050919050565b6000610b09826004610f3490919063ffffffff16565b9050919050565b610b193361088e565b610b2257600080fd5b610b36816003610e8890919063ffffffff16565b8073ffffffffffffffffffffffffffffffffffffffff167f0ed8a6a6a166243876472f7a8610b62c1a76c67911642d39ff34ead38105534f600360405180826005811115610b8057fe5b815260200191505060405180910390a250565b6000610ba9826001610f3490919063ffffffff16565b9050919050565b610bb933610e45565b610bc257600080fd5b600660009054906101000a900473ffffffffffffffffffffffffffffffffffffffff1673ffffffffffffffffffffffffffffffffffffffff1663db0975bc848484426040518563ffffffff1660e01b815260040180858152602001806020018415158152602001838152602001828103825285818151815260200191508051906020019080838360005b83811015610c67578082015181840152602081019050610c4c565b50505050905090810190601f168015610c945780820380516001836020036101000a031916815260200191505b5095505050505050600060405180830381600087803b158015610cb657600080fd5b505af1158015610cca573d6000803e3d6000fd5b50505050505050565b610cdc82610e28565b610ce557600080fd5b60016007600083815260200190815260200160002060000160146101000a81548160ff021916908315150217905550600660009054906101000a900473ffffffffffffffffffffffffffffffffffffffff1673ffffffffffffffffffffffffffffffffffffffff16632397e4d7826040518263ffffffff1660e01b815260040180828152602001915050600060405180830381600087803b158015610d8957600080fd5b505af1158015610d9d573d6000803e3d6000fd5b505050505050565b610dae3361088e565b610db757600080fd5b610dcb816002610e8890919063ffffffff16565b8073ffffffffffffffffffffffffffffffffffffffff167f0ed8a6a6a166243876472f7a8610b62c1a76c67911642d39ff34ead38105534f600260405180826005811115610e1557fe5b815260200191505060405180910390a250565b6000610e3e826003610f3490919063ffffffff16565b9050919050565b6000610e5b826002610f3490919063ffffffff16565b9050919050565b600660009054906101000a900473ffffffffffffffffffffffffffffffffffffffff1681565b600073ffffffffffffffffffffffffffffffffffffffff168173ffffffffffffffffffffffffffffffffffffffff161415610ec257600080fd5b610ecc8282610f34565b15610ed657600080fd5b60018260000160008373ffffffffffffffffffffffffffffffffffffffff1673ffffffffffffffffffffffffffffffffffffffff16815260200190815260200160002060006101000a81548160ff0219169083151502179055505050565b60008073ffffffffffffffffffffffffffffffffffffffff168273ffffffffffffffffffffffffffffffffffffffff161415610f6f57600080fd5b8260000160008373ffffffffffffffffffffffffffffffffffffffff1673ffffffffffffffffffffffffffffffffffffffff16815260200190815260200160002060009054906101000a900460ff1690509291505056fea2646970667358221220c2a56c2d6934f0e407ff5c13fa894473bff131454644833d10b2727c7fb8fc0864736f6c634300060c0033",
  "immutableReferences": {},
  "source": "pragma solidity ^0.6.0;\r\n\r\nimport \"./Roles.sol\";\r\nimport \"./tokens/MedicationToken.sol\";\r\n\r\ncontract SupplyChain {\r\n\r\n    using Roles for Roles.Role;\r\n\r\n    event RoleAdded(address indexed account, RoleType role);\r\n    event RoleRemoved(address indexed account, RoleType role);\r\n\r\n    Roles.Role admins;\r\n    Roles.Role hospitals;\r\n    Roles.Role producers;\r\n    Roles.Role pharmacies;\r\n    Roles.Role doctors;\r\n    Roles.Role patients;\r\n\r\n    address public token;\r\n\r\n    mapping(uint256 => Prescription) prescriptions;\r\n\r\n    struct Prescription {\r\n        address account;\r\n        bool alreadyUsed;\r\n    }\r\n\r\n    enum RoleType {\r\n        Admin, Hospital, Producer, Pharmacy, Doctor, Patient\r\n    }\r\n\r\n    constructor (address _token) public {\r\n        admins.bearer[msg.sender] = true;\r\n        token = _token;\r\n    }\r\n\r\n    modifier onlyAdmin() {\r\n        require(isAdmin(msg.sender));\r\n        _;\r\n    }\r\n\r\n    modifier onlyHospital() {\r\n        require(isHospital(msg.sender));\r\n        _;\r\n    }\r\n\r\n    modifier onlyProducer() {\r\n        require(isProducer(msg.sender));\r\n        _;\r\n    }\r\n\r\n    function isAdmin(address account) public view returns (bool) {\r\n        return admins.has(account);\r\n    }\r\n\r\n    function isHospital(address account) public view returns (bool) {\r\n        return hospitals.has(account);\r\n    }\r\n\r\n    function isProducer(address account) public view returns (bool) {\r\n        return producers.has(account);\r\n    }\r\n\r\n    function isPharmacy(address account) public view returns (bool) {\r\n        return pharmacies.has(account);\r\n    }\r\n\r\n    function isDoctor(address account) public view returns (bool) {\r\n        return doctors.has(account);\r\n    }\r\n\r\n    function isPatient(address account) public view returns (bool) {\r\n        return patients.has(account);\r\n    }\r\n\r\n    function addAdmin(address account) public onlyAdmin {\r\n        admins.add(account);\r\n        emit RoleAdded(account, RoleType.Admin);\r\n    }\r\n\r\n    function addHospital(address account) public onlyAdmin {\r\n        hospitals.add(account);\r\n        emit RoleAdded(account, RoleType.Hospital);\r\n    }\r\n\r\n    function addProducer(address account) public onlyAdmin {\r\n        producers.add(account);\r\n        emit RoleAdded(account, RoleType.Producer);\r\n    }\r\n\r\n    function addPharmacy(address account) public onlyAdmin {\r\n        pharmacies.add(account);\r\n        emit RoleAdded(account, RoleType.Pharmacy);\r\n    }\r\n\r\n    function addDoctor(address account) public onlyHospital {\r\n        doctors.add(account);\r\n        emit RoleAdded(account, RoleType.Doctor);\r\n    }\r\n\r\n    function addPatient(address account) public onlyHospital {\r\n        patients.add(account);\r\n        emit RoleAdded(account, RoleType.Patient);\r\n    }\r\n\r\n    function addPrescription(address account, uint256 medicationId) public {\r\n        require(isDoctor(account));\r\n        require(MedicationToken(token).isDrugInStore(medicationId));\r\n        prescriptions[medicationId] = Prescription(account, false);\r\n    }\r\n\r\n    function usePrescription(address account, uint256 medicationId) public {\r\n        require(isPharmacy(account));\r\n        prescriptions[medicationId].alreadyUsed = true;\r\n        MedicationToken(token).sellToken(medicationId);\r\n    }\r\n\r\n    function transferTkToStore(uint256 medicationId) public onlyProducer {\r\n        MedicationToken(token).transferTkToStore(medicationId);\r\n    }\r\n\r\n    function mintMTk(uint256 _id, string memory _name, bool _requiresPrescription) public onlyProducer {\r\n        MedicationToken(token).createToken(_id, _name, _requiresPrescription, now);\r\n    }\r\n\r\n}\r\n",
  "sourcePath": "D:/Facultad/blockchain/obligatorio/contracts/SupplyChain.sol",
  "compiler": {
    "name": "solc",
    "version": "0.6.12+commit.27d51765.Emscripten.clang"
  },
  "schemaVersion": "3.3.2",
  "updatedAt": "2020-11-20T04:29:28.306Z",
  "networkType": "ethereum",
  "devdoc": {
    "kind": "dev",
    "methods": {},
    "version": 1
  },
  "userdoc": {
    "kind": "user",
    "methods": {},
    "version": 1
  }
}